:020000040800F2
:1000000000000220C90B0008310B0008390B000862
:10001000410B0008490B0008510B000800000000CC
:10002000000000000000000000000000590B000864
:10003000670B000800000000750B0008830B000828
:10004000190C0008190C0008190C0008190C0008FC
:10005000190C0008190C0008190C0008190C0008EC
:10006000190C0008190C0008190C0008190C0008DC
:10007000190C0008190C0008190C0008190C0008CC
:10008000190C0008190C0008190C0008190C0008BC
:10009000190C0008190C0008190C0008190C0008AC
:1000A000190C0008190C0008190C0008190C00089C
:1000B000910B0008190C0008190C0008190C000815
:1000C000190C0008190C0008190C0008190C00087C
:1000D000190C0008190C0008190C0008190C00086C
:1000E000190C0008190C0008190C0008190C00085C
:1000F000190C0008190C0008190C0008190C00084C
:10010000190C0008190C0008190C0008190C00083B
:10011000190C0008190C0008190C0008190C00082B
:10012000190C0008190C0008190C0008190C00081B
:10013000190C00080000000000000000190C000865
:10014000190C0008190C0008190C0008190C0008FB
:10015000190C0008190C0008190C0008190C0008EB
:10016000190C0008190C0008190C0008190C0008DB
:10017000190C0008190C0008190C000800000000F8
:1001800000000000190C0008000000000000000042
:10019000190C00080000000000000000190C000805
:1001A000000000000000000000000000190C000822
:1001B000190C0008190C0008190C0008190C00088B
:0401C000190C00080E
:1001C40010B5054C237833B9044B13B10448AFF38D
:1001D40000800123237010BD0C00002000000000EB
:1001E4008037000808B5034B1BB103490348AFF33C
:1001F400008008BD000000001000002080370008C7
:1002040053B94AB9002908BF00281CBF4FF0FF3179
:100214004FF0FF3000F088B9ADF1080C6DE904CE61
:1002240000F006F8DDF804E0DDE9022304B07047CD
:100234002DE9F047089D8E4604468846002B4AD196
:100244008A42174662D9B2FA82F64EB1C6F1200349
:1002540001FA06F820FA03F3B74043EA0808B44069
:100264004FEA174E1FFA87FCB8FBFEF1230C0EFB76
:10027400118843EA084301FB0CF29A4209D9FB189E
:1002840001F1FF3080F0EA809A4240F2E7800239BF
:100294003B449A1AA3B2B2FBFEF00EFB102243EACF
:1002A400024300FB0CFC9C4509D9FB1800F1FF320A
:1002B40080F0D6809C4540F2D3803B44023840EA2B
:1002C4000140A3EB0C0300211DB1F3400022C5E95A
:1002D4000032BDE8F0878B4205D90DB1C5E90001B4
:1002E40000210846F5E7B3FA83F1002946D17345A6
:1002F40002D3824200F20581841A6EEB03020120CC
:100304009046002DE5D0C5E90048E2E7002A00F058
:100314009080B2FA82F6002E40F0A4808A1A030C70
:100324004FEA174E80B2BCB20121B2FBFEFC0EFBB9
:100334001C2243EA024304FB0CF29A4207D9FB183D
:100344000CF1FF3802D29A4200F2E080C4469B1AB4
:10035400B3FBFEF20EFB123340EA034302FB04F448
:100364009C4207D9FB1802F1FF3002D29C4200F2F2
:10037400CA8002461B1B42EA0C40A5E7C1F12006D5
:100384008B4022FA06F71F430EFA01F420FA06F313
:100394002EFA06FE4FEA1749234300FA01F81FFA22
:1003A40087FCBEFBF9F01C0C09FB10EE44EA0E447A
:1003B40000FB0CFEA64502FA01F209D93C1900F132
:1003C400FF3A80F09C80A64540F2998002383C4474
:1003D400A4EB0E041FFA83FEB4FBF9F309FB1344E8
:1003E4004EEA044403FB0CFCA44508D93C1903F170
:1003F400FF3E80F08280A4457FD9023B3C4443EA1F
:100404000040A4EB0C04A0FB02EC64457346E146F7
:1004140062D35FD05DB1B8EB030264EB090404FA64
:1004240006F622FA01F31E43CC40C5E9006400211C
:100434004FE7B1FBF2FC010C41EA0E4180B240EA05
:1004440001423B4638463C46B846BE462026B1FBF0
:10045400F7F1A2EB080241EA0C4166E7014618E70E
:1004640010462CE7C6F120022EFA02F3B740B14041
:1004740020FA02F24FEA174E0A43B3FBFEF8BCB26D
:100484000EFB1833110C41EA034108FB04F9B04098
:1004940089454FEA104380B23ED9791808F1FF3CF0
:1004A40001D289451FD8A1EB0901B1FBFEF909FB73
:1004B40004F80EFB191192B242EA0142424529D2D4
:1004C400BA1809F1FF31C4D24245C2D2A9F10201DE
:1004D4003A44BEE7F0459DD2BEEB02036CEB070C39
:1004E4000138E14696E7A7EB09094944A8F1020C53
:1004F400B1FBFEF909FB04F8DBE773467FE75046DE
:1005040066E70846FDE63B44023A33E7ACF1020CE9
:100514003B441CE749469CE7A1EB0901C446B1FBF7
:10052400FEF909FB04F8C4E7704700BF80B582B048
:1005340000AF78607B681B7F012B24D10021786891
:1005440002F0D0FA0346124A1360114B1B68002BC9
:1005540019D00421786802F0C5FA0346642203FB2B
:1005640002F20B4B1B68B2FBF3F307EE903AF8EE82
:10057400677A084BC3ED007A054B1B68064AB2FB49
:10058400F3F3064A136000BF0837BD4680BD00BFC1
:10059400B8000020C0000020804A5D05BC00002097
:1005A40080B500AF00F038FB00F01EF800F0CAF987
:1005B40000F08CF800F02AF90021084801F012FE3E
:1005C4000421064801F00EFE0021054801F0E8FC74
:1005D400044B4FF461725A6300BFFDE770000020C2
:1005E400280000200000014080B594B000AF07F15E
:1005F4001C0334220021184603F094F807F1080381
:1006040000221A605A609A60DA601A6100237B60E3
:100614002C4B1B6C2B4A43F080531364294B1B6CEB
:1006240003F080537B607B6800233B60264B1B6890
:10063400254A43F440431360234B1B6803F44043AF
:100644003B603B680123FB614FF480333B62022330
:100654007B634FF48003BB630423FB63B4233B64D9
:1006640002237B640223BB640223FB6407F11C03A3
:10067400184601F04FF90346002B01D000F08AF927
:1006840000F0E2FD0346002B01D000F083F90F23B4
:10069400BB600223FB6000233B614FF4A0537B61EA
:1006A4004FF48053BB6107F108030521184600F09D
:1006B4001BFE0346002B01D000F06CF900BF50373D
:1006C400BD4680BD003802400070004080B596B041
:1006D40000AF07F1480300221A605A609A60DA609A
:1006E40007F1400300221A605A6007F12403002234
:1006F4001A605A609A60DA601A615A619A613B1D05
:1007040020220021184603F00DF83E4B3E4A1A60A1
:100714003C4B00225A603B4B00229A60394B40F21A
:100724000772DA60374B00221A61364B00225A6195
:10073400344B00229A61334801F08AFB0346002BB4
:1007440001D000F027F94FF48053BB6407F148034C
:1007540019462C4802F0BCF80346002B01D000F0E7
:1007640019F9284801F0C3FB0346002B01D000F01F
:1007740011F900233B6400237B6407F1400319460D
:10078400204802F0EDFE0346002B01D000F002F9F0
:1007940060237B620023BB620023FB6200233B6374
:1007A40000237B630023BB630023FB6307F1240363
:1007B40000221946134801F0C9FF0346002B01D05B
:1007C40000F0E8F800237B600023BB600023FB609B
:1007D40000233B6100237B614FF40053BB61002382
:1007E4003B623B1D1946074802F036FF0346002BC7
:1007F40001D000F0CFF8034800F05EF900BF58378D
:10080400BD4680BD280000200000014080B590B0A6
:1008140000AF07F1300300221A605A609A60DA6070
:1008240007F11C0300221A605A609A60DA601A61A8
:1008340007F10C0300221A605A609A60DA603B1DCB
:1008440000221A605A603E4B4FF080421A603C4BC3
:1008540000225A603A4B00229A60394B4FF0FF3223
:10086400DA60374B00221A61354B00229A61344812
:1008740001F0EEFA0346002B01D000F08BF84FF4A0
:1008840080533B6307F1300319462D4802F020F8EA
:100894000346002B01D000F07DF8294801F048FC04
:1008A4000346002B01D000F075F80423FB615023AC
:1008B4003B6200237B620023BB620023FB6207F1DF
:1008C4001C0319461E4802F0CAF80346002B01D047
:1008D40000F060F80023FB6001233B610C237B6183
:1008E4000023BB6107F10C0300221946144801F0F0
:1008F40091FE0346002B01D000F04CF80223FB606C
:1009040002233B6107F10C03042219460C4801F051
:1009140081FE0346002B01D000F03CF800237B60ED
:100924000023BB603B1D1946054802F019FE03462F
:10093400002B01D000F02EF800BF4037BD4680BD2B
:100944007000002080B483B000AF00237B60104BA4
:100954001B6B0F4A43F0800313630D4B1B6B03F0B7
:1009640080037B607B6800233B60094B1B6B084A58
:1009740043F001031363064B1B6B03F001033B605D
:100984003B6800BF0C37BD465DF8047B704700BF71
:100994000038024080B400AF72B600BF00BFFDE76C
:1009A40080B483B000AF00237B60104B5B6C0F4AB4
:1009B40043F4804353640D4B5B6C03F480437B60CE
:1009C4007B6800233B60094B1B6C084A43F080534F
:1009D4001364064B1B6C03F080533B603B6800BF01
:1009E4000C37BD465DF8047B704700BF00380240F9
:1009F40080B58AB000AF786007F1140300221A6052
:100A04005A609A60DA601A617B681B68274A9342CD
:100A14000ED100233B61264B5B6C254A43F0010356
:100A24005364234B5B6C03F001033B613B6938E087
:100A34007B681B68B3F1804F33D10023FB601C4BF0
:100A44001B6C1B4A43F001031364194B1B6C03F02A
:100A54000103FB60FB680023BB60154B1B6B144A4E
:100A640043F001031363124B1B6B03F00103BB60E0
:100A7400BB6801237B610223BB610023FB6100236C
:100A84003B6201237B6207F114031946094800F015
:100A940047FA002200211C2000F00BFA1C2000F071
:100AA40024FA00BF2837BD4680BD00BF00000140C6
:100AB400003802400000024080B588B000AF786082
:100AC40007F10C0300221A605A609A60DA601A6116
:100AD4007B681B68124A93421ED10023BB60114BF2
:100AE4001B6B104A43F0010313630E4B1B6B03F0A3
:100AF4000103BB60BB684FF48073FB6002233B615E
:100B040000237B610023BB610123FB6107F10C031C
:100B14001946054800F004FA00BF2037BD4680BDE1
:100B240000000140003802400000024080B400AFE1
:100B340000BFFDE780B400AF00BFFDE780B400AFA5
:100B440000BFFDE780B400AF00BFFDE780B400AF95
:100B540000BFFDE780B400AF00BFBD465DF8047B75
:100B6400704780B400AF00BFBD465DF8047B70479A
:100B740080B400AF00BFBD465DF8047B704780B50C
:100B840000AF00F09BF800BF80BD000080B500AF4F
:100B9400024801F04FFC00BF80BD00BF7000002080
:100BA40080B400AF064BD3F88830054A43F4700391
:100BB400C2F8883000BFBD465DF8047B704700BFB3
:100BC40000ED00E0DFF834D0FFF7EAFF0C480D49F0
:100BD4000D4A002302E0D458C4500433C4188C4294
:100BE400F9D30A4A0A4C002301E013600432A242FA
:100BF400FBD302F09FFDFFF7D3FC704700000220F7
:100C0400000000200C000020B83700080C00002071
:100C1400C8000020FEE7000080B500AF0E4B1B6843
:100C24000D4A43F4007313600B4B1B680A4A43F4E8
:100C340080631360084B1B68074A43F48073136096
:100C4400032000F02BF90F2000F008F8FFF7A8FEAE
:100C54000023184680BD00BF003C024080B582B02E
:100C640000AF7860124B1A68124B1B7819464FF488
:100C74007A73B3FBF1F3B2FBF3F3184600F043F9D4
:100C84000346002B01D001230EE07B680F2B0AD80A
:100C9400002279684FF0FF3000F00BF9064A7B68B8
:100CA4001360002300E0012318460837BD4680BDC9
:100CB40000000020080000200400002080B400AFE1
:100CC400064B1B781A46064B1B681344044A1360F0
:100CD40000BFBD465DF8047B704700BF08000020DC
:100CE400C400002080B400AF034B1B681846BD4607
:100CF4005DF8047B704700BFC400002080B485B059
:100D040000AF78607B6803F00703FB600C4BDB6883
:100D1400BB60BA684FF6FF031340BB60FB681A025E
:100D2400BB68134343F0BF6343F40033BB60044A1E
:100D3400BB68D36000BF1437BD465DF8047B7047C1
:100D440000ED00E080B400AF044BDB681B0A03F045
:100D540007031846BD465DF8047B704700ED00E0CC
:100D640080B483B000AF0346FB7197F90730002BC2
:100D74000BDBFB7903F01F02074997F907305B0986
:100D8400012000FA02F241F8232000BF0C37BD46CF
:100D94005DF8047B704700BF00E100E080B483B0DD
:100DA40000AF03463960FB7197F90730002B0ADB6B
:100DB4003B68DAB20C4997F907301201D2B20B44FE
:100DC40083F800230AE03B68DAB20849FB7903F0B0
:100DD4000F03043B1201D2B20B441A7600BF0C3746
:100DE400BD465DF8047B704700E100E000ED00E0E3
:100DF40080B489B000AFF860B9607A60FB6803F032
:100E04000703FB61FB69C3F10703042B28BF042319
:100E1400BB61FB690433062B02D9FB69033B00E089
:100E240000237B614FF0FF32BB6902FA03F3DA431C
:100E3400BB681A407B699A404FF0FF317B6901FA25
:100E440003F3D9437B680B40134318462437BD464C
:100E54005DF8047B7047000080B582B000AF786015
:100E64007B68013BB3F1807F01D301230FE00A4A81
:100E74007B68013B53600F214FF0FF30FFF78EFF7B
:100E8400054B00229A60044B07221A60002318467F
:100E94000837BD4680BD00BF10E000E080B582B0D9
:100EA40000AF78607868FFF729FF00BF0837BD46B8
:100EB40080BD80B586B000AF0346B9607A60FB732D
:100EC40000237B61FFF73EFF78617A68B96878692F
:100ED400FFF78EFF024697F90F3011461846FFF7C9
:100EE4005DFF00BF1837BD4680BD80B582B000AF3E
:100EF4000346FB7197F907301846FFF731FF00BF2F
:100F04000837BD4680BD80B582B000AF7860786890
:100F1400FFF7A2FF034618460837BD4680BD000010
:100F240080B489B000AF7860396000237B6100230E
:100F34003B610023BB610023FB6165E10122FB6986
:100F440002FA03F37B613B681B687A6913403B61D7
:100F54003A697B699A4240F054813B685B6803F0CC
:100F64000303012B05D03B685B6803F00303022BEA
:100F740030D17B689B68BB61FB695B00032202FA8A
:100F840003F3DB43BA691340BB613B68DA68FB696E
:100F94005B0002FA03F3BA691343BB617B68BA6965
:100FA4009A607B685B68BB610122FB6902FA03F308
:100FB400DB43BA691340BB613B685B681B0903F000
:100FC4000102FB6902FA03F3BA691343BB617B684C
:100FD400BA695A603B685B6803F00303032B17D0BC
:100FE4007B68DB68BB61FB695B00032202FA03F3E5
:100FF400DB43BA691340BB613B689A68FB695B00D9
:1010040002FA03F3BA691343BB617B68BA69DA6015
:101014003B685B6803F00303022B23D1FB69DA0806
:101024007B68083253F82230BB61FB6903F0070385
:101034009B000F2202FA03F3DB43BA691340BB613E
:101044003B681A69FB6903F007039B0002FA03F388
:10105400BA691343BB61FB69DA087B680832B96972
:1010640043F822107B681B68BB61FB695B000322A9
:1010740002FA03F3DB43BA691340BB613B685B6864
:1010840003F00302FB695B0002FA03F3BA6913433A
:10109400BB617B68BA691A603B685B6803F44033E0
:1010A400002B00F0AE800023FB605D4B5B6C5C4A60
:1010B40043F4804353645A4B5B6C03F48043FB60FA
:1010C400FB68584AFB699B08023352F82330BB6122
:1010D400FB6903F003039B000F2202FA03F3DB43D3
:1010E400BA691340BB617B684F4A934225D07B6841
:1010F4004E4A93421FD07B684D4A934219D07B6875
:101104004C4A934213D07B684B4A93420DD07B6880
:101114004A4A934207D07B68494A934201D1062345
:101124000CE007230AE0052308E0042306E0032378
:1011340004E0022302E0012300E00023FA6902F044
:10114400030292009340BA691343BB613549FB69BA
:101154009B080233BA6941F823203A4B9B68BB6170
:101164003B69DB43BA691340BB613B685B6803F4CA
:101174008013002B03D0BA693B691343BB61314A26
:10118400BB6993602F4BDB68BB613B69DB43BA6986
:101194001340BB613B685B6803F40013002B03D06E
:1011A400BA693B691343BB61264ABB69D360254BCB
:1011B4005B68BB613B69DB43BA691340BB613B6855
:1011C4005B6803F40033002B03D0BA693B69134313
:1011D400BB611C4ABB6953601A4B1B68BB613B690A
:1011E400DB43BA691340BB613B685B6803F480333B
:1011F400002B03D0BA693B691343BB61114ABB6935
:101204001360FB690133FB61FB690F2B7FF696AE1C
:1012140000BF00BF2437BD465DF8047B704700BFA4
:10122400003802400038014000000240000402403F
:1012340000080240000C024000100240001402406A
:1012440000180240003C014080B582B000AF00238A
:101254007B6000233B60204B1B6C1F4A43F0805390
:1012640013641D4B1B6C03F080533B603B681B4BAA
:1012740001221A60FFF736FD786009E0FFF732FDBE
:1012840002467B68D31AB3F57A7F01D903231FE0A2
:10129400134B5B6803F48033B3F5803FEED1114BFD
:1012A40001221A60FFF71EFD786009E0FFF71AFDBE
:1012B40002467B68D31AB3F57A7F01D9032307E08A
:1012C400074B5B6803F40033B3F5003FEED1002312
:1012D40018460837BD4680BD0038024040000E4223
:1012E4000070004044000E4280B584B000AF7860C6
:1012F40039607B68002B01D10123CCE0684B1B686B
:1013040003F00F033A689A420CD9654B3A68D2B29B
:101314001A70634B1B6803F00F033A689A4201D0BA
:101324000123B8E07B681B6803F00203002B20D084
:101334007B681B6803F00403002B05D0594B9B68A2
:10134400584A43F4E05393607B681B6803F0080336
:10135400002B05D0534B9B68524A43F4604393607F
:10136400504B9B6823F0F0027B689B684D49134304
:101374008B607B681B6803F00103002B44D07B68FF
:101384005B68012B07D1474B1B6803F40033002B28
:1013940019D101237FE07B685B68022B03D07B6853
:1013A4005B68032B07D13F4B1B6803F00073002BD2
:1013B40009D101236FE03B4B1B6803F00203002BB0
:1013C40001D1012367E0374B9B6823F003027B685C
:1013D4005B68344913438B60FFF784FCF8600AE0D0
:1013E400FFF780FC0246FB68D31A41F2883293422D
:1013F40001D903234FE02B4B9B6803F00C027B685D
:101404005B689B009A42EBD1254B1B6803F00F03EA
:101414003A689A420CD2224B3A68D2B21A70204BE4
:101424001B6803F00F033A689A4201D0012332E0AB
:101434007B681B6803F00403002B08D0194B9B68DE
:1014440023F4E0527B68DB68164913438B607B68A6
:101454001B6803F00803002B09D0124B9B6823F48C
:1014640060427B681B69DB000E4913438B6000F00C
:1014740021F802460B4B9B681B0903F00F030A4932
:10148400CB5C22FA03F3094A1360094B1B68184624
:10149400FFF7E4FB002318461037BD4680BD00BFAC
:1014A400003C024000380240983700080000002049
:1014B400040000202DE9B04FAEB000AF0023C7F800
:1014C400AC300023C7F8B4300023C7F8A830002399
:1014D400C7F8A4300023C7F8B030CB4B9B6803F0A7
:1014E4000C030C2B00F2068201A252F823F000BF79
:1014F40029150008F9180008F9180008F918000857
:1015040031150008F9180008F9180008F91800083E
:1015140039150008F9180008F9180008F918000826
:1015240029170008B94BC7F8B030E7E1B84BC7F842
:10153400B030E3E1B44B5B6803F03F03C7F8AC3071
:10154400B14B5B6803F48003002B71D0AE4B5B6836
:101554009B090022C7F89830C7F89C20D7F8983028
:10156400C3F30803C7F890300023C7F89430D7E9D1
:10157400244522462B464FF000004FF0000159014C
:1015840041EAD261500102460B462146511A3964A0
:10159400294663EB01037B644FF000024FF0000324
:1015A400D7E9108949468B01414643EA9163414694
:1015B4008A014146511AB963494663EB0103FB634F
:1015C4004FF000024FF00003D7E90E894946CB00E3
:1015D400414643EA51734146CA0010461946034640
:1015E40022469B183B632B460A4642EB03037B636C
:1015F4004FF000024FF00003D7E90C4529464B0297
:10160400214643EAD15321464A0210461946D7F8E7
:10161400AC300022C7F88830C7F88C20D7E92223E1
:10162400FEF7EEFD02460B461346C7F8B43067E0FA
:10163400754B5B689B090022C7F88030C7F884208B
:10164400D7F88030C3F30803BB670023FB67D7E9EF
:101654001E4522462B464FF000004FF00001590171
:1016640041EAD261500102460B462146511AB96241
:10167400294663EB0103FB624FF000024FF00003C5
:10168400D7E90A8949468B01414643EA91634146B9
:101694008A014146B2EB010A494663EB010B4FF064
:1016A40000024FF000034FEACB0343EA5A734FEAB8
:1016B400CA0292469B4623461AEB03033B622B461F
:1016C4004BEB03037B624FF000024FF00003D7E9BA
:1016D400084529468B02214643EA915321468A0252
:1016E40010461946D7F8AC3000223B677A67D7E931
:1016F4001C23FEF785FD02460B461346C7F8B4309B
:10170400414B5B681B0C03F0030301335B00C7F818
:10171400A830D7F8B420D7F8A830B2FBF3F3C7F851
:10172400B030EBE0384B5B6803F03F03C7F8AC30F4
:10173400354B5B6803F48003002B6BD0324B5B6842
:101744009B090022BB66FA66BB6EC3F308033B66C3
:1017540000237B66D7E9184522462B464FF000004C
:101764004FF00001590141EAD261500102460B4693
:101774002146511AB961294663EB0103FB614FF01D
:1017840000024FF00003D7E906AB59468B015146DE
:1017940043EA916351468A015146B2EB0108594626
:1017A40063EB01094FF000024FF000034FEAC90355
:1017B40043EA58734FEAC80290469946234618EB09
:1017C40003033B612B4649EB03037B614FF00002AB
:1017D4004FF00003D7E9044529464B02214643EA6A
:1017E400D15321464A0210461946D7F8AC3000229C
:1017F400BB65FA65D7E91623FEF702FD02460B46E0
:101804001346C7F8B43065E0003802400024F40001
:1018140000127A003D4B5B689B0900221846114672
:10182400C0F308033B6500237B65D7E9148942466E
:101834004B464FF000004FF00001590141EAD261DC
:10184400500102460B464146511AB960494663EBC2
:101854000103FB604FF000024FF00003D7E902AB35
:1018640059468B01514643EA916351468A015146D8
:10187400541A594663EB01054FF000024FF0000380
:10188400EB0043EA5473E20014461D464346E31852
:101894003B604B4645EB03037B604FF000024FF087
:1018A4000003D7E9004529468B02214643EA9153B8
:1018B40021468A0210461946D7F8AC300022BB6490
:1018C400FA64D7E91223FEF79BFC02460B46134643
:1018D400C7F8B4300D4B5B681B0F03F00703C7F860
:1018E400A430D7F8B420D7F8A430B2FBF3F3C7F888
:1018F400B03003E0064BC7F8B03000BFD7F8B030C3
:101904001846B837BD46BDE8B08F00BF0038024066
:101914000024F40080B586B000AF78607B68002BAB
:1019240001D101238DE27B681B6803F00103002BC6
:1019340000F08380944B9B6803F00C03042B19D0B4
:10194400914B9B6803F00C03082B06D18E4B5B680C
:1019540003F48003B3F5800F0CD08B4B9B6803F02A
:101964000C030C2B12D1884B5B6803F48003B3F592
:10197400800F0BD1844B1B6803F40033002B5BD026
:101984007B685B68002B57D101235AE27B685B6854
:10199400B3F5803F06D17C4B1B687B4A43F480330C
:1019A40013601DE07B685B68B3F5A02F0CD1764B08
:1019B4001B68754A43F480231360734B1B68724A97
:1019C40043F4803313600BE06F4B1B686E4A23F4BF
:1019D400803313606C4B1B686B4A23F480231360C1
:1019E4007B685B68002B13D0FFF77CF9386108E053
:1019F400FFF778F902463B69D31A642B01D9032314
:101A04001FE2614B1B6803F40033002BF0D014E099
:101A1400FFF768F9386108E0FFF764F902463B69AB
:101A2400D31A642B01D903230BE2574B1B6803F42D
:101A34000033002BF0D100E000BF7B681B6803F08B
:101A44000203002B6FD0504B9B6803F00C03002B58
:101A540017D04D4B9B6803F00C03082B05D14A4B60
:101A64005B6803F48003002B0BD0474B9B6803F0A7
:101A74000C030C2B1CD1444B5B6803F48003002B38
:101A840016D1414B1B6803F00203002B05D07B6881
:101A9400DB68012B01D00123D3E13B4B1B6823F00E
:101AA400F8027B681B69DB00374913430B603AE09B
:101AB4007B68DB68002B20D0344B01221A60FFF7CF
:101AC40011F9386108E0FFF70DF902463B69D31AB2
:101AD400022B01D90323B4E12B4B1B6803F002034F
:101AE400002BF0D0284B1B6823F0F8027B681B699D
:101AF400DB00254913430B6015E0244B00221A60D8
:101B0400FFF7F0F8386108E0FFF7ECF802463B69AC
:101B1400D31A022B01D9032393E11B4B1B6803F057
:101B24000203002BF0D17B681B6803F00803002B31
:101B340036D07B685B69002B16D0154B01221A60E6
:101B4400FFF7D0F8386108E0FFF7CCF802463B69AC
:101B5400D31A022B01D9032373E10B4B5B6F03F000
:101B64000203002BF0D01BE0094B00221A60FFF7A0
:101B7400B9F838610EE0FFF7B5F802463B69D31AAD
:101B8400022B07D903235CE10038024000004742DE
:101B9400800E47428A4B5B6F03F00203002BEAD1AD
:101BA4007B681B6803F00403002B00F0978000237C
:101BB400FB75834B1B6C03F08053002B0FD1002368
:101BC400BB607F4B1B6C7E4A43F0805313647C4B99
:101BD4001B6C03F08053BB60BB680123FB75794B1E
:101BE4001B6803F48073002B18D1764B1B68754A6D
:101BF40043F480731360FFF775F8386108E0FFF76A
:101C040071F802463B69D31A022B01D9032318E168
:101C14006C4B1B6803F48073002BF0D07B689B68CB
:101C2400012B06D1664B1B6F654A43F00103136712
:101C34001CE07B689B68052B0CD1614B1B6F604AD1
:101C440043F0040313675E4B1B6F5D4A43F00103CB
:101C540013670BE05A4B1B6F594A23F001031367B8
:101C6400574B1B6F564A23F0040313677B689B682A
:101C7400002B15D0FFF736F838610AE0FFF732F889
:101C840002463B69D31A41F28832934201D90323B5
:101C9400D7E04B4B1B6F03F00203002BEED014E094
:101CA400FFF720F838610AE0FFF71CF802463B69A9
:101CB400D31A41F28832934201D90323C1E0404B45
:101CC4001B6F03F00203002BEED1FB7D012B05D12A
:101CD4003B4B1B6C3A4A23F0805313647B689B692B
:101CE400002B00F0AD80364B9B6803F00C03082BEF
:101CF40060D07B689B69022B45D1334B00221A606C
:101D0400FEF7F0FF386108E0FEF7ECFF02463B699E
:101D1400D31A022B01D9032393E0294B1B6803F048
:101D24000073002BF0D17B68DA697B681B6A1A4365
:101D34007B685B6A9B011A437B689B6A5B08013B77
:101D44001B041A437B68DB6A1B061A437B681B6B04
:101D54001B071B4913434B601B4B01221A60FEF700
:101D6400C1FF386108E0FEF7BDFF02463B69D31AA4
:101D7400022B01D9032364E0114B1B6803F00073A9
:101D8400002BF0D05CE0104B00221A60FEF7AAFF93
:101D9400386108E0FEF7A6FF02463B69D31A022B1E
:101DA40001D903234DE0064B1B6803F00073002B9D
:101DB400F0D145E07B689B69012B07D1012340E00A
:101DC4000038024000700040600047421F4B5B68CF
:101DD400FB607B689B69012B30D0FB6803F48002B5
:101DE4007B68DB699A4229D1FB6803F03F027B6878
:101DF4001B6A9A4222D1FA6847F6C07313407A6884
:101E0400526A9201934219D1FB6803F440327B6811
:101E14009B6A5B08013B1B049A420FD1FB6803F0E9
:101E240070627B68DB6A1B069A4207D1FB6803F089
:101E3400E0427B681B6B1B079A4201D0012300E040
:101E4400002318461837BD4680BD00BF0038024045
:101E540080B582B000AF78607B68002B01D101238C
:101E640041E07B6893F83D30DBB2002B06D17B6800
:101E7400002283F83C207868FEF7BAFD7B680222D2
:101E840083F83D207B681A687B6804331946104642
:101E940000F094FE7B68012283F846207B680122CF
:101EA40083F83E207B68012283F83F207B6801226F
:101EB40083F840207B68012283F841207B6801225B
:101EC40083F842207B68012283F843207B68012247
:101ED40083F844207B68012283F845207B68012233
:101EE40083F83D20002318460837BD4680BD80B5E1
:101EF40082B000AF78607B68002B01D1012341E000
:101F04007B6893F83D30DBB2002B06D17B6800225E
:101F140083F83C20786800F039F87B68022283F863
:101F24003D207B681A687B6804331946104600F02C
:101F340045FE7B68012283F846207B68012283F8F2
:101F44003E207B68012283F83F207B68012283F8CE
:101F540040207B68012283F841207B68012283F8BA
:101F640042207B68012283F843207B68012283F8A6
:101F740044207B68012283F845207B68012283F892
:101F84003D20002318460837BD4680BD80B483B089
:101F940000AF786000BF0C37BD465DF8047B704726
:101FA40080B584B000AF786039603B68002B09D1FC
:101FB4007B6893F83E30DBB2012B14BF012300236E
:101FC400DBB222E03B68042B09D17B6893F83F30F5
:101FD400DBB2012B14BF01230023DBB215E03B6805
:101FE400082B09D17B6893F84030DBB2012B14BF76
:101FF40001230023DBB208E07B6893F84130DBB2B5
:10200400012B14BF01230023DBB2002B01D00123D9
:102014007CE03B68002B04D17B68022283F83E20DD
:1020240013E03B68042B04D17B68022283F83F2031
:102034000BE03B68082B04D17B68022283F8402024
:1020440003E07B68022283F841207B681B6801223D
:102054003968184601F05EFA7B681B682D4A934282
:1020640004D07B681B682C4A934201D1012300E011
:102074000023002B07D07B681B685A6C7B681B68A5
:1020840042F400425A647B681B68224A934222D07D
:102094007B681B68B3F1804F1DD07B681B681F4AA7
:1020A400934218D07B681B681D4A934213D07B6807
:1020B4001B681C4A93420ED07B681B68164A9342E5
:1020C40009D07B681B68184A934204D07B681B685C
:1020D400164A934211D17B681B689B6803F007037F
:1020E400FB60FB68062B10D07B681B681A687B6852
:1020F4001B6842F001021A6007E07B681B681A68DB
:102104007B681B6842F001021A60002318461037EE
:10211400BD4680BD000001400004014000040040B1
:1021240000080040000C004000400140001800403E
:1021340080B582B000AF78607B68002B01D10123A9
:1021440041E07B6893F83D30DBB2002B06D17B681D
:10215400002283F83C20786800F039F87B6802227A
:1021640083F83D207B681A687B680433194610465F
:1021740000F024FD7B68012283F846207B6801225D
:1021840083F83E207B68012283F83F207B6801228C
:1021940083F840207B68012283F841207B68012278
:1021A40083F842207B68012283F843207B68012264
:1021B40083F844207B68012283F845207B68012250
:1021C40083F83D20002318460837BD4680BD80B4FF
:1021D40083B000AF786000BF0C37BD465DF8047B68
:1021E4007047000080B584B000AF78603960002388
:1021F400FB733B68002B04D17B6893F83E30DBB261
:1022040013E03B68042B04D17B6893F83F30DBB2C6
:102214000BE03B68082B04D17B6893F84030DBB2B9
:1022240003E07B6893F84130DBB2BB733B68002B5F
:1022340004D17B6893F84230DBB213E03B68042B93
:1022440004D17B6893F84330DBB20BE03B68082B86
:1022540004D17B6893F84430DBB203E07B6893F8E5
:102264004530DBB27B73BB7B012B02D17B7B012B23
:1022740001D00123CCE03B68002B04D17B6802220F
:1022840083F83E2013E03B68042B04D17B680222D0
:1022940083F83F200BE03B68082B04D17B680222C3
:1022A40083F8402003E07B68022283F841203B68E6
:1022B400002B04D17B68022283F8422013E03B68A0
:1022C400042B04D17B68022283F843200BE03B6893
:1022D400082B04D17B68022283F8442003E07B6846
:1022E400022283F845203B680C2B41D801A252F806
:1022F40023F000BF2D230008752300087523000870
:10230400752300083F23000875230008752300087F
:10231400752300085123000875230008752300085D
:1023240075230008632300087B681B68DA687B68F0
:102334001B6842F00202DA601DE07B681B68DA6801
:102344007B681B6842F00402DA6014E07B681B6857
:10235400DA687B681B6842F00802DA600BE07B688D
:102364001B68DA687B681B6842F01002DA6002E0DE
:102374000123FB7300BFFB7B002B48D17B681B68E8
:1023840001223968184601F0C5F87B681B68224AA7
:10239400934222D07B681B68B3F1804F1DD07B68C9
:1023A4001B681E4A934218D07B681B681C4A9342E0
:1023B40013D07B681B681B4A93420ED07B681B6852
:1023C400194A934209D07B681B68184A934204D087
:1023D4007B681B68164A934211D17B681B689B6813
:1023E40003F00703BB60BB68062B10D07B681B6837
:1023F4001A687B681B6842F001021A6007E07B6878
:102404001B681A687B681B6842F001021A60FB7B38
:1024140018461037BD4680BD00000140000400404E
:1024240000080040000C004000040140004001404E
:102434000018004080B584B000AF78607B681B68EA
:10244400DB68FB607B681B681B69BB60BB6803F0CF
:102454000203002B20D0FB6803F00203002B1BD0E7
:102464007B681B686FF002021A617B6801221A778D
:102474007B681B689B6903F00303002B03D0786817
:10248400FEF754F805E0786800F07AFB786800F00D
:1024940081FB7B6800221A77BB6803F00403002BDE
:1024A40020D0FB6803F00403002B1BD07B681B685F
:1024B4006FF004021A617B6802221A777B681B683A
:1024C4009B6903F44073002B03D07868FEF72EF861
:1024D40005E0786800F054FB786800F05BFB7B68EB
:1024E40000221A77BB6803F00803002B20D0FB6896
:1024F40003F00803002B1BD07B681B686FF00802F5
:102504001A617B6804221A777B681B68DB6903F015
:102514000303002B03D07868FEF708F805E0786819
:1025240000F02EFB786800F035FB7B6800221A77F8
:10253400BB6803F01003002B20D0FB6803F01003EA
:10254400002B1BD07B681B686FF010021A617B683C
:1025540008221A777B681B68DB6903F44073002B3D
:1025640003D07868FDF7E2FF05E0786800F008FB27
:10257400786800F00FFB7B6800221A77BB6803F0D1
:102584000103002B0CD0FB6803F00103002B07D0E0
:102594007B681B686FF001021A61786800F0E6FA44
:1025A400BB6803F08003002B0CD0FB6803F08003AE
:1025B400002B07D07B681B686FF080021A61786873
:1025C40001F0A6F8BB6803F04003002B0CD0FB68B5
:1025D40003F04003002B07D07B681B686FF04002B8
:1025E4001A61786800F0E0FABB6803F02003002B5E
:1025F4000CD0FB6803F02003002B07D07B681B681A
:102604006FF020021A61786801F078F800BF103783
:10261400BD4680BD80B586B000AFF860B9607A6011
:102624000023FB75FB6893F83C30012B01D1022396
:1026340088E0FB68012283F83C207B68002B1BD1D7
:10264400FB681868BB681968BB685A68BB68DB68B4
:1026540000F09CFDFB681B689A69FB681B6822F00C
:102664000C029A61FB681B689969BB689A68FB68ED
:102674001B680A439A6160E07B68042B1CD1FB68E9
:102684001868BB681968BB685A68BB68DB6800F0E7
:1026940020FEFB681B689A69FB681B6822F4406291
:1026A4009A61FB681B689969BB689B681A02FB689E
:1026B4001B680A439A6140E07B68082B1BD1FB68C6
:1026C4001868BB681968BB685A68BB68DB6800F0A7
:1026D4006DFEFB681B68DA69FB681B6822F00C025C
:1026E400DA61FB681B68D969BB689A68FB681B6878
:1026F4000A43DA6121E07B680C2B1CD1FB68186863
:10270400BB681968BB685A68BB68DB6800F08AFE5E
:10271400FB681B68DA69FB681B6822F44062DA61B3
:10272400FB681B68D969BB689B681A02FB681B6855
:102734000A43DA6101E00123FB75FB68002283F898
:102744003C20FB7D18461837BD4680BD80B586B059
:1027540000AFF860B9607A600023FB75FB6893F8FA
:102764003C30012B01D10223AEE0FB68012283F847
:102774003C207B680C2B00F29F8001A252F823F0CE
:10278400B9270008BD280008BD280008BD28000896
:10279400F9270008BD280008BD280008BD28000846
:1027A4003B280008BD280008BD280008BD280008F3
:1027B4007B280008FB681B68B968184600F0A4FA77
:1027C400FB681B689A69FB681B6842F008029A61FF
:1027D400FB681B689A69FB681B6822F004029A6113
:1027E400FB681B689969BB681A69FB681B680A4324
:1027F4009A6164E0FB681B68B968184600F0F4FA53
:10280400FB681B689A69FB681B6842F400629A6162
:10281400FB681B689A69FB681B6822F480629A61F2
:10282400FB681B689969BB681B691A02FB681B6813
:102834000A439A6143E0FB681B68B968184600F0D4
:1028440049FBFB681B68DA69FB681B6842F00802F5
:10285400DA61FB681B68DA69FB681B6822F0040212
:10286400DA61FB681B68D969BB681A69FB681B6875
:102874000A43DA6123E0FB681B68B968184600F074
:102884009DFBFB681B68DA69FB681B6842F4006205
:10289400DA61FB681B68DA69FB681B6822F48062F2
:1028A400DA61FB681B68D969BB681B691A02FB689B
:1028B4001B680A43DA6102E00123FB7500BFFB6871
:1028C400002283F83C20FB7D18461837BD4680BDA6
:1028D40080B584B000AF786039600023FB737B68F7
:1028E40093F83C30012B01D10223B4E07B68012230
:1028F40083F83C207B68022283F83D207B681B68B8
:102904009B68BB60BB6823F07703BB60BB6823F4A0
:102914007F43BB607B681B68BA689A603B681B682E
:10292400B3F5005F3ED0B3F5005F00F28780B3F5E6
:10293400805F00F08680B3F5805F7FD8702B1AD05B
:10294400702B7BD8602B50D0602B77D8502B3CD089
:10295400502B73D8402B58D0402B6FD8302B64D0D9
:10296400302B6BD8202B60D0202B67D8002B5CD069
:10297400102B5AD062E07B6818683B6899683B6802
:102984005A683B68DB6800F0A5FD7B681B689B68A0
:10299400BB60BB6843F07703BB607B681B68BA68A5
:1029A4009A604FE07B6818683B6899683B685A688E
:1029B4003B68DB6800F08EFD7B681B689A687B6867
:1029C4001B6842F480429A603CE07B6818683B686C
:1029D40059683B68DB681A4600F04CFC7B681B684E
:1029E4005021184600F05BFD2CE07B6818683B68BA
:1029F40059683B68DB681A4600F0A8FC7B681B68D2
:102A04006021184600F04BFD1CE07B6818683B68A9
:102A140059683B68DB681A4600F02CFC7B681B682D
:102A24004021184600F03BFD0CE07B681A683B68C7
:102A34001B681946104600F032FD03E00123FB73C6
:102A440000E000BF7B68012283F83D207B68002200
:102A540083F83C20FB7B18461037BD4680BD80B50B
:102A640082B000AF786039607B6893F83C30012B0A
:102A740001D1022331E07B68012283F83C207B688A
:102A8400022283F83D203968786800F0EDFA0346A5
:102A9400002B09D07B68012283F83D207B6800224B
:102AA40083F83C20012318E07B681B68DA687B68A4
:102AB4001B6822F04002DA607B681B68DA687B6876
:102AC4001B6822F48042DA607B68012283F83D208F
:102AD4007B68002283F83C20002318460837BD4653
:102AE40080BD000080B485B000AF786039600023F9
:102AF400FB603B680C2B31D801A252F823F000BFD5
:102B0400392B0008612B0008612B0008612B000899
:102B1400432B0008612B0008612B0008612B00087F
:102B24004D2B0008612B0008612B0008612B000865
:102B3400572B00087B681B685B6BFB600FE07B68AE
:102B44001B689B6BFB600AE07B681B68DB6BFB60AC
:102B540005E07B681B681B6CFB6000E000BFFB6842
:102B640018461437BD465DF8047B704780B483B0C3
:102B740000AF786000BF0C37BD465DF8047B70473A
:102B840080B483B000AF786000BF0C37BD465DF8F9
:102B9400047B704780B483B000AF786000BF0C370B
:102BA400BD465DF8047B704780B483B000AF7860A5
:102BB40000BF0C37BD465DF8047B704780B485B018
:102BC40000AF786039607B681B68FB607B68434AB0
:102BD400934213D07B68B3F1804F0FD07B68404A97
:102BE40093420BD07B683F4A934207D07B683E4AAE
:102BF400934203D07B683D4A934208D1FB6823F09B
:102C04007003FB603B685B68FA681343FB607B6896
:102C1400324A93422BD07B68B3F1804F27D07B6834
:102C24002F4A934223D07B682E4A93421FD07B685D
:102C34002D4A93421BD07B682C4A934217D07B6861
:102C44002B4A934213D07B682A4A93420FD07B6865
:102C5400294A93420BD07B68284A934207D07B6869
:102C6400274A934203D07B68264A934208D1FB68E3
:102C740023F44073FB603B68DB68FA681343FB6032
:102C8400FB6823F080023B685B691343FB603B688D
:102C94009A687B68DA623B681A687B689A627B6828
:102CA4000E4A934203D07B68104A934203D13B6897
:102CB4001A697B681A637B681B6843F004027B68AB
:102CC4001A607B6801225A617B68FA681A6000BF47
:102CD4001437BD465DF8047B704700BF0000014017
:102CE4000004004000080040000C004000040140C3
:102CF40000400140004401400048014000180040E9
:102D0400001C00400020004080B487B000AF786011
:102D140039607B681B6A7B617B681B6A23F0010254
:102D24007B681A627B685B683B617B689B69FB60BC
:102D3400FB6823F07003FB60FB6823F00303FB6074
:102D44003B681B68FA681343FB607B6923F002034A
:102D54007B613B689B687A6913437B617B68204A8B
:102D6400934203D07B681F4A93420CD17B6923F0C2
:102D740008037B613B68DB687A6913437B617B6989
:102D840023F004037B617B68154A934203D07B687C
:102D9400144A934211D13B6923F480733B613B692C
:102DA40023F400733B613B685B693A6913433B61FD
:102DB4003B689B693A6913433B617B683A695A6093
:102DC4007B68FA689A613B685A687B685A637B68D7
:102DD4007A691A6200BF1C37BD465DF8047B7047F0
:102DE400000001400004014080B487B000AF786067
:102DF40039607B681B6A7B617B681B6A23F0100265
:102E04007B681A627B685B683B617B689B69FB60DB
:102E1400FB6823F4E043FB60FB6823F44073FB602E
:102E24003B681B681B02FA681343FB607B6923F051
:102E340020037B613B689B681B017A6913437B61B8
:102E44007B68224A934203D07B68214A93420DD186
:102E54007B6923F080037B613B68DB681B017A6933
:102E640013437B617B6923F040037B617B68174AD2
:102E7400934203D07B68164A934213D13B6923F4EF
:102E840080633B613B6923F400633B613B685B699E
:102E94009B003A6913433B613B689B699B003A6919
:102EA40013433B617B683A695A607B68FA689A61AC
:102EB4003B685A687B689A637B687A691A6200BFC8
:102EC4001C37BD465DF8047B704700BF000001401D
:102ED4000004014080B487B000AF786039607B683B
:102EE4001B6A7B617B681B6A23F480727B681A62AD
:102EF4007B685B683B617B68DB69FB60FB6823F094
:102F04007003FB60FB6823F00303FB603B681B68F2
:102F1400FA681343FB607B6923F400737B613B68AD
:102F24009B681B027A6913437B617B68214A934245
:102F340003D07B68204A93420DD17B6923F400635C
:102F44007B613B68DB681B027A6913437B617B69A5
:102F540023F480637B617B68164A934203D07B68C9
:102F6400154A934213D13B6923F480533B613B6977
:102F740023F400533B613B685B691B013A691343CB
:102F84003B613B689B691B013A6913433B617B6866
:102F94003A695A607B68FA68DA613B685A687B6808
:102FA400DA637B687A691A6200BF1C37BD465DF834
:102FB400047B7047000001400004014080B487B0E6
:102FC40000AF786039607B681B6A3B617B681B6A71
:102FD40023F480527B681A627B685B687B617B6840
:102FE400DB69FB60FB6823F4E043FB60FB6823F4CC
:102FF4004073FB603B681B681B02FA681343FB6069
:103004003B6923F400533B613B689B681B033A69AB
:1030140013433B617B68124A934203D07B68114A95
:10302400934209D17B6923F480437B613B685B69EC
:103034009B017A6913437B617B687A695A607B6878
:10304400FA68DA613B685A687B681A647B683A6993
:103054001A6200BF1C37BD465DF8047B704700BF91
:10306400000001400004014080B586B000AF7860E4
:1030740039600023FB757B681B689B683B613B6977
:1030840023F070033B613B685B683A6913433B611F
:103094003B6923F007033B613B681B683A691343B0
:1030A4003B617B681B683A699A603B685B68702B7C
:1030B4001AD0702B60D8602B54D0602B5CD8502B66
:1030C40046D0502B58D8402B19D0402B54D8302BF5
:1030D40055D0302B50D8202B51D0202B4CD8002B3E
:1030E4004DD0102B4BD047E07B6818683B68D968FB
:1030F4003B689A683B681B6900F0ECF940E03B6868
:103104001B68052B01D101233BE07B681B681B6A0C
:10311400FB607B681B681A6A7B681B6822F00102EB
:103124001A627B681B689B69BB60BB6823F0F00371
:10313400BB603B681B691B01BA681343BB607B68B7
:103144001B68BA689A617B681B68FA681A6217E0A0
:103154007B6818683B6899683B681B691A4600F0ED
:1031640089F80DE07B6818683B6899683B681B69BF
:103174001A4600F0EBF803E00123FB7500E000BF02
:10318400FB7D18461837BD4680BD000080B487B06B
:1031940000AFF860B9607A603B60FB681B6A3B6112
:1031A400FB681B6A23F00102FB681A62FB689B69D7
:1031B4007B61FB68284A93421BD0FB68B3F1804FC4
:1031C40017D0FB68254A934213D0FB68244A9342E4
:1031D4000FD0FB68234A93420BD0FB68224A9342E8
:1031E40007D0FB68214A934203D0FB68204A9342EC
:1031F40001D1012300E00023002B08D07B6923F0D8
:1032040003037B617A697B6813437B6103E07B6919
:1032140043F001037B617B6923F0F0037B613B682E
:103224001B01DBB27A6913437B613B6923F00A0318
:103234003B61BB6803F00A033A6913433B61FB68D3
:103244007A699A61FB683A691A6200BF1C37BD4605
:103254005DF8047B704700BF00000140000400409B
:1032640000080040000C0040000401400040014000
:103274000018004080B487B000AFF860B9607A608D
:10328400FB681B6A7B61FB681B6A23F00102FB6815
:103294001A62FB689B693B613B6923F0F0033B6165
:1032A4007B681B013A6913433B617B6923F00A0382
:1032B4007B617A69BB6813437B61FB683A699A61F5
:1032C400FB687A691A6200BF1C37BD465DF8047B4F
:1032D400704780B487B000AFF860B9607A603B6033
:1032E400FB681B6A7B61FB681B6A23F01002FB68A6
:1032F4001A62FB689B693B613B6923F440733B6141
:103304007B681B023A6913433B613B6923F47043B6
:103314003B613B681B039BB23A6913433B617B6986
:1033240023F0A0037B61BB681B0103F0A0037A694F
:1033340013437B61FB683A699A61FB687A691A6294
:1033440000BF1C37BD465DF8047B704780B487B06E
:1033540000AFF860B9607A60FB681B6A7B61FB6848
:103364001B6A23F01002FB681A62FB689B693B61CD
:103374003B6923F470433B617B681B033A69134345
:103384003B617B6923F0A0037B61BB681B017A6905
:1033940013437B61FB683A699A61FB687A691A6234
:1033A40000BF1C37BD465DF8047B704780B487B00E
:1033B40000AFF860B9607A603B60FB681B6A7B61B0
:1033C400FB681B6A23F48072FB681A62FB68DB6982
:1033D4003B613B6923F003033B613A697B68134318
:1033E4003B613B6923F0F0033B613B681B01DBB2AB
:1033F4003A6913433B617B6923F420637B61BB68B7
:103404001B0203F420637A6913437B61FB683A6906
:10341400DA61FB687A691A6200BF1C37BD465DF841
:10342400047B704780B487B000AFF860B9607A60FD
:103434003B60FB681B6A7B61FB681B6A23F4805258
:10344400FB681A62FB68DB693B613B6923F44073E8
:103454003B617B681B023A6913433B613B6923F47C
:1034640070433B613B681B039BB23A6913433B6166
:103474007B6923F420437B61BB681B0303F4204373
:103484007A6913437B61FB683A69DA61FB687A699C
:103494001A6200BF1C37BD465DF8047B704780B4D8
:1034A40085B000AF786039607B689B68FB60FB681F
:1034B40023F07003FB603A68FB68134343F007038F
:1034C400FB607B68FA689A6000BF1437BD465DF8FC
:1034D400047B704780B487B000AFF860B9607A604D
:1034E4003B60FB689B687B617B6923F47F437B6162
:1034F4003B681A027B681A43BB6813437A69134317
:103504007B61FB687A699A6000BF1C37BD465DF831
:10351400047B704780B487B000AFF860B9607A600C
:10352400BB6803F01F03012202FA03F37B61FB680B
:103534001A6A7B69DB431A40FB681A62FB681A6AE1
:10354400BB6803F01F03796801FA03F31A43FB68AD
:103554001A6200BF1C37BD465DF8047B704700004B
:1035640080B485B000AF786039607B6893F83C30F4
:10357400012B01D102235AE07B68012283F83C200D
:103584007B68022283F83D207B681B685B68FB60D4
:103594007B681B689B68BB60FB6823F07003FB605F
:1035A4003B681B68FA681343FB607B681B68FA6816
:1035B4005A607B681B68214A934222D07B681B684F
:1035C400B3F1804F1DD07B681B681D4A934218D00D
:1035D4007B681B681B4A934213D07B681B681A4A9A
:1035E40093420ED07B681B68184A934209D07B68CB
:1035F4001B68174A934204D07B681B68154A9342A0
:103604000CD1BB6823F08003BB603B685B68BA687D
:103614001343BB607B681B68BA689A607B680122AD
:1036240083F83D207B68002283F83C200023184661
:103634001437BD465DF8047B704700BF00000140AD
:103644000004004000080040000C00400004014059
:10365400004001400018004080B485B000AF78609D
:1036640039600023FB607B6893F83C30012B01D167
:1036740002233DE07B68012283F83C20FB6823F0B1
:10368400FF023B68DB681343FB60FB6823F4407272
:103694003B689B681343FB60FB6823F480623B68D0
:1036A4005B681343FB60FB6823F400623B681B68A0
:1036B4001343FB60FB6823F480523B681B6913438C
:1036C400FB60FB6823F400523B685B691343FB60B7
:1036D400FB6823F480423B68DB691343FB607B682F
:1036E4001B68FA685A647B68002283F83C20002334
:1036F40018461437BD465DF8047B704780B483B028
:1037040000AF786000BF0C37BD465DF8047B70479E
:1037140080B483B000AF786000BF0C37BD465DF85D
:10372400047B704702440346934200D1704703F878
:10373400011BF9E770B50D4D0D4C641BA410002658
:10374400A64209D10B4D0C4C00F018F8641BA410D0
:103754000026A64205D170BD55F8043B98470136B2
:10376400EEE755F8043B98470136F2E7B037000816
:10377400B0370008B0370008B4370008F8B500BF08
:10378400F8BC08BC9E467047F8B500BFF8BC08BC3E
:043794009E46704796
:1037980000000000000000000102030406070809F9
:0837A8008CCAFF7F0100000044
:0437B000E901000823
:0437B400C501000843
:0C37B8000024F4001000000001000000DC
:0400000508000BC91B
:00000001FF
