:020000040800F2
:1000000000280020B10800084D0800085508000825
:100010005D080008650800086D0800080000000081
:10002000000000000000000000000000750800084B
:1000300081080008000000008D08000899080008E9
:10004000F9080008F9080008F9080008F90800088C
:10005000F9080008F9080008F9080008F90800087C
:10006000F9080008F9080008F9080008F90800086C
:10007000F9080008F9080008F9080008F90800085C
:10008000F9080008F9080008F9080008F90800084C
:10009000F9080008F9080008F9080008F90800083C
:1000A000F9080008F9080008F9080008F90800082C
:1000B000F9080008F908000800000000F908000825
:1000C000F90800080000000000000000F90800081E
:1000D00000000000F9080008F9080008000000000E
:1000E000F9080008F9080008F908000800000000F5
:1000F0000000000000000000000000000000000000
:0C01000000000000000000005FF808F1A3
:1001100010B5054C237833B9044B13B10448AFF341
:1001200000800123237010BD0C000020000000009F
:10013000E418000808B5034B1BB103490348AFF3AB
:10014000008008BD0000000010000020E418000836
:1001500081F0004102E000BF83F0004330B54FEA78
:1001600041044FEA430594EA050F08BF90EA020FE5
:100170001FBF54EA000C55EA020C7FEA645C7FEA78
:10018000655C00F0E2804FEA5454D4EB5555B8BF9B
:100190006D420CDD2C4480EA020281EA030382EA0C
:1001A000000083EA010180EA020281EA0303362D9E
:1001B00088BF30BD11F0004F4FEA01314FF4801C71
:1001C0004CEA113102D0404261EB410113F0004F83
:1001D0004FEA03334CEA133302D0524263EB43033A
:1001E00094EA050F00F0A780A4F10104D5F1200ED8
:1001F0000DDB02FA0EFC22FA05F2801841F1000133
:1002000003FA0EF2801843FA05F359410EE0A5F106
:1002100020050EF1200E012A03FA0EFC28BF4CF037
:10022000020C43FA05F3C01851EBE37101F00045ED
:1002300007D54FF0000EDCF1000C7EEB00006EEBFA
:100240000101B1F5801F1BD3B1F5001F0CD3490884
:100250005FEA30004FEA3C0C04F101044FEA4452DB
:1002600012F5800F80F09A80BCF1004F08BF5FEA62
:10027000500C50F1000041EB045141EA050130BD42
:100280005FEA4C0C404141EB0101013C28BFB1F554
:10029000801FE9D291F0000F04BF01460020B1FA9F
:1002A00081F308BF2033A3F10B03B3F120020CDA72
:1002B0000C3208DD02F1140CC2F10C0201FA0CF050
:1002C00021FA02F10CE002F11402D8BFC2F1200CB5
:1002D00001FA02F120FA0CFCDCBF41EA0C0190406B
:1002E000E41AA2BF01EB0451294330BD6FEA0404B4
:1002F0001F3C1CDA0C340EDC04F11404C4F120029F
:1003000020FA04F001FA02F340EA030021FA04F3B0
:1003100045EA030130BDC4F10C04C4F1200220FA07
:1003200002F001FA04F340EA0300294630BD21FA45
:1003300004F0294630BD94F0000F83F4801306BF0B
:1003400081F480110134013D4EE77FEA645C18BFFF
:100350007FEA655C29D094EA050F08BF90EA020F96
:1003600005D054EA000C04BF1946104630BD91EA8E
:10037000030F1EBF0021002030BD5FEA545C05D191
:100380004000494128BF41F0004130BD14F58004D0
:100390003CBF01F5801130BD01F0004545F0FE4144
:1003A00041F470014FF0000030BD7FEA645C1ABF79
:1003B000194610467FEA655C1CBF0B46024650EAB0
:1003C000013406BF52EA033591EA030F41F40021DC
:1003D00030BD00BF90F0000F04BF0021704730B562
:1003E0004FF4806404F132044FF000054FF0000137
:1003F00050E700BF90F0000F04BF0021704730B5F8
:100400004FF4806404F1320410F0004548BF4042CC
:100410004FF000013EE700BF42004FEAE2014FEA21
:1004200031014FEA02701FBF12F07F4393F07F4FFC
:1004300081F06051704732F07F4208BF704793F0FF
:100440007F4F04BF41F40021704730B54FF4607412
:1004500001F0004521F000411CE700BF50EA010215
:1004600008BF704730B54FF000050AE050EA0102BE
:1004700008BF704730B511F0004502D5404261EB2E
:1004800041014FF4806404F132045FEA915C3FF46F
:10049000D8AE4FF003025FEADC0C18BF03325FEA0C
:1004A000DC0C18BF033202EBDC02C2F1200300FABD
:1004B00003FC20FA02F001FA03FE40EA0E0021FAE2
:1004C00002F11444BDE600BF4FEA4102B2F1E0433D
:1004D00024BFB3F5001CDCF1FE5C0DD901F0004C2B
:1004E0004FEAC0024CEA5070B2F1004F40EB83007B
:1004F00008BF20F00100704711F0804F21D113F1A7
:100500003872BCBF01F00040704741F480114FEADF
:100510005252C2F11802C2F1200C10FA0CF320FA68
:1005200002F018BF40F001004FEAC1234FEAD32385
:1005300003FA0CFC40EA0C0023FA02F34FEA4303EF
:10054000CCE77FEA625307D150EA01331EBF4FF078
:10055000FE4040F44000704701F0004040F0FE4093
:1005600040F40000704700BF80B586B000AF00F0D7
:10057000C5F900F037F800F099F800F06DF80023A5
:10058000FB754FF000033B61154B45229A60144BFD
:1005900042F20402DA60FB7D0133FB753869FFF734
:1005A0003BFF0DA3D3E90023FFF7D8FD02460B461E
:1005B00010461946FFF788FF03463B61084AFB7D5A
:1005C000536000BF064B1B6803F04003002BF9D0BB
:1005D000E1E700BFAFF300809A9999999999B93FE3
:1005E0000038014080B590B000AF07F11803282211
:1005F0000021184601F04AF93B1D00221A605A609A
:100600009A60DA601A610123BB614FF48033FB61A9
:1006100000237B6307F11803184600F049FC0346EA
:10062000002B01D000F08EF80F237B600123BB600C
:100630000023FB6000233B6100237B613B1D002105
:10064000184600F0B7FE0346002B01D000F07AF800
:1006500000BF4037BD4680BD80B500AF114B124A88
:100660001A60104B4FF4E1325A600E4B00229A6030
:100670000C4B0022DA600B4B00221A61094B0C2252
:100680005A61084B00229A61064B0022DA61054844
:1006900001F01EF80346002B01D000F053F800BF14
:1006A00080BD00BF280000200038014080B588B020
:1006B00000AF07F1100300221A605A609A60DA60F6
:1006C0001E4B9B691D4A43F0100393611B4B9B69B2
:1006D00003F01003FB60FB68184B9B69174A43F05B
:1006E00020039361154B9B6903F02003BB60BB683B
:1006F000124B9B69114A43F0040393610F4B9B69B2
:1007000003F004037B607B6800224FF4C0410C4877
:1007100000F0B6FB4FF4C0433B6101237B61002333
:10072000BB610223FB6107F110031946044800F086
:100730002BFA00BF2037BD4680BD00BF001002402D
:100740000010014080B400AF72B600BF00BFFDE7EB
:1007500080B485B000AF154B9B69144A43F0010388
:100760009361124B9B6903F00103BB60BB680F4BA5
:10077000DB690E4A43F08053D3610C4BDB6903F015
:1007800080537B607B680A4B5B68FB60FB6823F0EF
:10079000E063FB60FB6843F00073FB60044AFB68A6
:1007A000536000BF1437BD4680BC70470010024044
:1007B0000000014080B588B000AF786007F11003F9
:1007C00000221A605A609A60DA607B681B681C4AD3
:1007D000934231D11B4B9B691A4A43F48043936186
:1007E000184B9B6903F48043FB60FB68154B9B69C6
:1007F000144A43F004039361124B9B6903F0040312
:10080000BB60BB684FF400733B6102237B61032331
:10081000FB6107F1100319460B4800F0B5F94FF4DE
:1008200080633B6100237B610023BB6107F1100300
:100830001946054800F0A8F900BF2037BD4680BD25
:1008400000380140001002400008014080B400AFB1
:1008500000BFFDE780B400AF00BFFDE780B400AF8C
:1008600000BFFDE780B400AF00BFFDE780B400AF7C
:1008700000BFFDE780B400AF00BFBD4680BC70473D
:1008800080B400AF00BFBD4680BC704780B400AFED
:1008900000BFBD4680BC704780B500AF00F074F863
:1008A00000BF80BD80B400AF00BFBD4680BC7047B4
:1008B000FFF7F8FF0B480C490C4A002302E0D4581C
:1008C000C4500433C4188C42F9D3094A094C00239C
:1008D00001E013600432A242FBD300F0DFFFFFF718
:1008E00043FE7047000000200C0000203019000873
:1008F0000C00002074000020FEE7000080B500AF6F
:10090000084B1B68074A43F010031360032000F0F4
:1009100007F90F2000F008F8FFF71AFF0023184628
:1009200080BD00BF0020024080B582B000AF78607B
:10093000124B1A68124B1B7819464FF47A73B3FBAB
:10094000F1F3B2FBF3F3184600F011F90346002B64
:1009500001D001230EE07B680F2B0AD800227968B2
:100960004FF0FF3000F0E7F8064A7B681360002381
:1009700000E0012318460837BD4680BD0000002076
:10098000080000200400002080B400AF054B1B7855
:100990001A46054B1B681344034A136000BFBD464B
:1009A00080BC7047080000207000002080B400AFB9
:1009B000024B1B681846BD4680BC70477000002083
:1009C00080B485B000AF78607B6803F00703FB60FC
:1009D0000C4BDB68BB60BA684FF6FF031340BB608B
:1009E000FB681A02BB68134343F0BF6343F4003350
:1009F000BB60044ABB68D36000BF1437BD4680BCEF
:100A0000704700BF00ED00E080B400AF044BDB682E
:100A10001B0A03F007031846BD4680BC704700BFA1
:100A200000ED00E080B483B000AF03463960FB7195
:100A300097F90730002B0ADB3B68DAB20C4997F9CB
:100A400007301201D2B20B4483F800230AE03B685E
:100A5000DAB20849FB7903F00F03043B1201D2B26A
:100A60000B441A7600BF0C37BD4680BC704700BFF0
:100A700000E100E000ED00E080B489B000AFF86074
:100A8000B9607A60FB6803F00703FB61FB69C3F19F
:100A90000703042B28BF0423BB61FB690433062B27
:100AA00002D9FB69033B00E000237B614FF0FF327A
:100AB000BB6902FA03F3DA43BB681A407B699A40C8
:100AC0004FF0FF317B6901FA03F3D9437B680B4098
:100AD000134318462437BD4680BC704780B582B0AA
:100AE00000AF78607B68013BB3F1807F01D30123C5
:100AF0000FE00A4A7B68013B53600F214FF0FF3043
:100B0000FFF790FF054B00229A60044B07221A6002
:100B1000002318460837BD4680BD00BF10E000E046
:100B200080B582B000AF78607868FFF749FF00BFFA
:100B30000837BD4680BD80B586B000AF0346B960BA
:100B40007A60FB7300237B61FFF75EFF78617A6850
:100B5000B9687869FFF790FF024697F90F301146A0
:100B60001846FFF75FFF00BF1837BD4680BD80B550
:100B700082B000AF78607868FFF7B0FF0346184690
:100B80000837BD4680BD000080B48BB000AF7860F0
:100B9000396000237B6200233B6261E101227B6AB2
:100BA00002FA03F3FB613B681B68FA691340BB61FF
:100BB000BA69FB699A4240F050813B685B68974A8A
:100BC00093425ED0954A934275D8954A934258D045
:100BD000934A93426FD8934A934252D0914A934298
:100BE00069D8914A93424CD08F4A934263D88F4A36
:100BF000934246D08D4A93425DD8122B2AD8122BAD
:100C000059D801A252F823F0830C00085D0C0008AB
:100C10006F0C0008B10C0008B70C0008B70C0008F6
:100C2000B70C0008B70C0008B70C0008B70C000898
:100C3000B70C0008B70C0008B70C0008B70C000888
:100C4000B70C0008B70C0008B70C0008650C0008CA
:100C5000790C0008764A934213D02CE03B68DB689D
:100C60003B6229E03B68DB6804333B6224E03B687D
:100C7000DB6808333B621FE03B68DB680C333B6298
:100C80001AE03B689B68002B02D104233B6213E00F
:100C90003B689B68012B05D108233B627B68FA699E
:100CA0001A6109E008233B627B68FA695A6103E034
:100CB00000233B6200E000BFBB69FF2B01D87B68CB
:100CC00001E07B6804337B61BB69FF2B02D87B6A40
:100CD0009B0002E07B6A083B9B003B617B691A68D2
:100CE0000F213B6901FA03F3DB431A40396A3B6980
:100CF00001FA03F31A437B691A603B685B6803F0EF
:100D00008053002B00F0A9804A4B9B69494A43F06D
:100D100001039361474B9B6903F00103BB60BB6810
:100D2000454A7B6A9B08023352F82330FB607B6A9A
:100D300003F003039B000F2202FA03F3DB43FA687C
:100D40001340FB607B683D4A93420DD07B683C4A70
:100D5000934207D07B683B4A934201D1022304E0CF
:100D6000032302E0012300E000237A6A02F0030279
:100D700092009340FA681343FB602F497B6A9B08FB
:100D80000233FA6841F823203B685B6803F4801360
:100D9000002B06D02C4B9A682B49BB6913438B6000
:100DA00006E0294B9A68BB69DB43274913408B60F7
:100DB0003B685B6803F40013002B06D0224BDA6813
:100DC0002149BB691343CB6006E01F4BDA68BB695E
:100DD000DB431D491340CB603B685B6803F4003381
:100DE000002B06D0184B5A681749BB6913434B6058
:100DF00006E0154B5A68BB69DB43134913404B604F
:100E00003B685B6803F48033002B1FD00E4B1A68DD
:100E10000D49BB6913430B601FE000BF0000321097
:100E200000003110000022100000211000001210FC
:100E300000001110001002400000014000080140B5
:100E4000000C014000100140000401400B4B1A68E7
:100E5000BB69DB43094913400B607B6A01337B624A
:100E60003B681A687B6A22FA03F3002B7FF496AE84
:100E700000BF00BF2C37BD4680BC70470004014056
:100E800080B483B000AF78600B467B8013467B70E4
:100E90007B78002B03D07A887B681A6103E07B881B
:100EA0001A047B681A6100BF0C37BD4680BC7047CE
:100EB00080B586B000AF78607B68002B01D101233C
:100EC00072E27B681B6803F00103002B00F087804F
:100ED000924B5B6803F00C03042B0CD08F4B5B68C8
:100EE00003F00C03082B12D18C4B5B6803F48033A6
:100EF000B3F5803F0BD1894B1B6803F40033002B03
:100F00006CD07B685B68002B68D101234CE27B6866
:100F10005B68B3F5803F06D1804B1B687F4A43F482
:100F2000803313602EE07B685B68002B0CD17B4B19
:100F30001B687A4A23F480331360784B1B68774A26
:100F400023F4802313601DE07B685B68B3F5A02F5A
:100F50000CD1724B1B68714A43F4802313606F4BB2
:100F60001B686E4A43F4803313600BE06B4B1B68C5
:100F70006A4A23F480331360684B1B68674A23F482
:100F8000802313607B685B68002B13D0FFF70EFD96
:100F9000386108E0FFF70AFD02463B69D31A642B6B
:100FA00001D9032300E25D4B1B6803F40033002BDF
:100FB000F0D014E0FFF7FAFC386108E0FFF7F6FC28
:100FC00002463B69D31A642B01D90323ECE1534B4E
:100FD0001B6803F40033002BF0D100E000BF7B68F6
:100FE0001B6803F00203002B63D04C4B5B6803F0DB
:100FF0000C03002B0BD0494B5B6803F00C03082B50
:101000001CD1464B5B6803F48033002B16D1434B55
:101010001B6803F00203002B05D07B681B69012BC2
:1010200001D00123C0E13D4B1B6823F0F8027B682F
:101030005B69DB00394913430B603AE07B681B694D
:10104000002B20D0364B01221A60FFF7AFFC38612D
:1010500008E0FFF7ABFC02463B69D31A022B01D92B
:101060000323A1E12D4B1B6803F00203002BF0D0FA
:101070002A4B1B6823F0F8027B685B69DB00274979
:1010800013430B6015E0264B00221A60FFF78EFC1D
:10109000386108E0FFF78AFC02463B69D31A022B4D
:1010A00001D9032380E11D4B1B6803F00203002BD1
:1010B000F0D17B681B6803F00803002B3AD07B68F3
:1010C0009B69002B19D0174B01221A60FFF76EFCA9
:1010D000386108E0FFF76AFC02463B69D31A022B2D
:1010E00001D9032360E10D4B5B6A03F00203002B7F
:1010F000F0D0012000F0CEFA1CE00A4B00221A606A
:10110000FFF754FC38610FE0FFF750FC02463B69E3
:10111000D31A022B08D9032346E100BF0010024076
:101120000000424280044242924B5B6A03F0020399
:10113000002BE9D17B681B6803F00403002B00F04F
:10114000A6800023FB758B4BDB6903F08053002BDB
:101150000DD1884BDB69874A43F08053D361854BBF
:10116000DB6903F08053BB60BB680123FB75824BD6
:101170001B6803F48073002B18D17F4B1B687E4AD9
:1011800043F480731360FFF711FC386108E0FFF748
:101190000DFC02463B69D31A642B01D9032303E1FA
:1011A000754B1B6803F48073002BF0D07B68DB6801
:1011B000012B06D16F4B1B6A6E4A43F00103136289
:1011C0002DE07B68DB68002B0CD16A4B1B6A694AF7
:1011D00023F001031362674B1B6A664A23F0040382
:1011E00013621CE07B68DB68052B0CD1614B1B6A2A
:1011F000604A43F0040313625E4B1B6A5D4A43F08E
:10120000010313620BE05B4B1B6A5A4A23F0010394
:101210001362584B1B6A574A23F0040313627B681E
:10122000DB68002B15D0FFF7C1FB38610AE0FFF740
:10123000BDFB02463B69D31A41F28832934201D981
:101240000323B1E04B4B1B6A03F00203002BEED0EB
:1012500014E0FFF7ABFB38610AE0FFF7A7FB02469B
:101260003B69D31A41F28832934201D903239BE0B0
:10127000404B1B6A03F00203002BEED1FB7D012BD8
:1012800005D13C4BDB693B4A23F08053D3617B683B
:10129000DB69002B00F08780364B5B6803F00C03A2
:1012A000082B61D07B68DB69022B46D1334B0022CF
:1012B0001A60FFF77BFB386108E0FFF777FB024617
:1012C0003B69D31A022B01D903236DE0294B1B681C
:1012D00003F00073002BF0D17B681B6AB3F5803FED
:1012E00008D1244B5B6823F400327B689B6821495A
:1012F00013434B601F4B5B6823F474127B68196ABD
:101300007B685B6A0B431B4913434B601B4B0122F9
:101310001A60FFF74BFB386108E0FFF747FB024616
:101320003B69D31A022B01D903233DE0114B1B6803
:1013300003F00073002BF0D035E0104B00221A6050
:10134000FFF734FB386108E0FFF730FB02463B69EA
:10135000D31A022B01D9032326E0064B1B6803F0A6
:101360000073002BF0D11EE07B68DB69012B07D1F5
:10137000012319E00010024000700040600042426A
:101380000B4B5B68FB60FB6803F480327B681B6A75
:101390009A4206D1FB6803F470127B685B6A9A423A
:1013A00001D0012300E0002318461837BD4680BD58
:1013B0000010024080B584B000AF786039607B686F
:1013C000002B01D10123D0E06A4B1B6803F0070317
:1013D0003A689A4210D9674B1B6823F007026549A7
:1013E0003B6813430B60634B1B6803F007033A68C9
:1013F0009A4201D00123B8E07B681B6803F0020326
:10140000002B20D07B681B6803F00403002B05D061
:10141000594B5B68584A43F4E06353607B681B6830
:1014200003F00803002B05D0534B5B68524A43F48A
:1014300060535360504B5B6823F0F0027B689B68FD
:101440004D4913434B607B681B6803F00103002B7D
:1014500040D07B685B68012B07D1474B1B6803F4C6
:101460000033002B15D101237FE07B685B68022BE2
:1014700007D1414B1B6803F00073002B09D10123F6
:1014800073E03D4B1B6803F00203002B01D10123E5
:101490006BE0394B5B6823F003027B685B6836497D
:1014A00013434B60FFF782FAF8600AE0FFF77EFA19
:1014B0000246FB68D31A41F28832934201D90323D2
:1014C00053E02D4B5B6803F00C027B685B689B006C
:1014D0009A42EBD1274B1B6803F007033A689A4204
:1014E00010D2244B1B6823F0070222493B681343A8
:1014F0000B60204B1B6803F007033A689A4201D047
:10150000012332E07B681B6803F00403002B08D042
:10151000194B5B6823F4E0627B68DB681649134370
:101520004B607B681B6803F00803002B09D0124B4B
:101530005B6823F460527B681B69DB000E49134330
:101540004B6000F021F802460B4B5B681B0903F06F
:101550000F030A49CB5C22FA03F3094A1360094BD3
:101560001B681846FFF7E0F9002318461037BD4600
:1015700080BD00BF0020024000100240FC1800089F
:10158000000000200400002080B487B000AF0023DA
:10159000FB600023BB6000237B6100237B60002392
:1015A0003B611E4B5B68FB60FB6803F00C03042B84
:1015B00002D0082B03D027E0194B3B6127E0FB68E2
:1015C0009B0C03F00F03174AD35C7B60FB6803F4AA
:1015D0008033002B10D0114B5B685B0C03F00103D0
:1015E000114AD35CBB607B680D4A03FB02F2BB6807
:1015F000B2FBF3F37B6104E07B680C4A02FB03F36C
:101600007B617B693B6102E0054B3B6100BF3B694D
:1016100018461C37BD4680BC704700BF0010024012
:1016200000127A00141900082419000800093D006E
:1016300080B400AF024B1B681846BD4680BC7047A3
:101640000000002080B500AFFFF7F2FF0246054B17
:101650005B681B0A03F007030349CB5C22FA03F320
:10166000184680BD001002400C19000880B500AF7C
:10167000FFF7DEFF0246054B5B68DB0A03F007035A
:101680000349CB5C22FA03F3184680BD00100240E8
:101690000C19000880B485B000AF78600A4B1B6855
:1016A0000A4AA2FB03235B0A7A6802FB03F3FB608E
:1016B00000BFFB685A1EFA60002BF9D100BF00BFC3
:1016C0001437BD4680BC704700000020D34D621027
:1016D00080B582B000AF78607B68002B01D1012318
:1016E00042E07B6893F84130DBB2002B06D17B6887
:1016F000002283F840207868FFF75CF87B6824229A
:1017000083F841207B681B68DA687B681B6822F4D9
:101710000052DA60786800F02BF87B681B681A6961
:101720007B681B6822F490421A617B681B685A69C7
:101730007B681B6822F02A025A617B681B68DA68A2
:101740007B681B6842F40052DA607B6800225A64AE
:101750007B68202283F841207B68202283F8422086
:101760007B6800225A63002318460837BD4680BDB7
:1017700080B584B000AF78607B681B681B6923F478
:1017800040517B68DA687B681B680A431A617B6892
:101790009A687B681B691A437B685B691343BB606B
:1017A0007B681B68DB6823F4B05323F00C037A6872
:1017B0001268B9680B43D3607B681B685B6923F4CC
:1017C00040717B689A697B681B680A435A617B6831
:1017D0001B682C4A934203D1FFF748FFF86002E0F0
:1017E000FFF730FFF860FA6813469B0013449A0035
:1017F0001A447B685B689B00B2FBF3F3224AA2FBAE
:1018000003235B091901FA6813469B0013449A00ED
:101810001A447B685B689B00B2FBF3F21A4BA3FB94
:1018200002035B09642000FB03F3D31A1B0132336C
:10183000154AA2FB03235B0903F0F0031944FA687D
:1018400013469B0013449A001A447B685B689B0014
:10185000B2FBF3F20C4BA3FB02035B09642000FB19
:1018600003F3D31A1B013233074AA2FB03235B099C
:1018700003F00F027B681B680A449A6000BF1037B0
:10188000BD4680BD003801401F85EB510346024430
:10189000934200D1704703F8011BF9E770B50026A9
:1018A0000C4D0D4C641BA410A64209D100F01AF88F
:1018B00000260A4D0A4C641BA410A64205D170BD37
:1018C00055F8043B98470136EEE755F8043B984736
:1018D0000136F2E72819000828190008281900081D
:1018E0002C190008F8B500BFF8BC08BC9E4670472C
:0C18F000F8B500BFF8BC08BC9E4670476D
:1018FC0000000000000000000102030406070809B4
:10190C000000000001020304020304050607080995
:0C191C000A0B0C0D0E0F10100102000051
:04192800350100087D
:04192C00110100089D
:0C19300000127A0010000000010000000E
:04000005080008B136
:00000001FF
